{
  "_format": "hh-sol-artifact-1",
  "contractName": "ShopNFT",
  "sourceName": "contracts/ShopNFT.sol",
  "abi": [
    {
      "inputs": [],
      "stateMutability": "payable",
      "type": "constructor"
    },
    {
      "anonymous": false,
      "inputs": [
        {
          "indexed": true,
          "internalType": "address",
          "name": "owner",
          "type": "address"
        },
        {
          "indexed": true,
          "internalType": "address",
          "name": "approved",
          "type": "address"
        },
        {
          "indexed": true,
          "internalType": "uint256",
          "name": "tokenId",
          "type": "uint256"
        }
      ],
      "name": "Approval",
      "type": "event"
    },
    {
      "anonymous": false,
      "inputs": [
        {
          "indexed": true,
          "internalType": "address",
          "name": "owner",
          "type": "address"
        },
        {
          "indexed": true,
          "internalType": "address",
          "name": "operator",
          "type": "address"
        },
        {
          "indexed": false,
          "internalType": "bool",
          "name": "approved",
          "type": "bool"
        }
      ],
      "name": "ApprovalForAll",
      "type": "event"
    },
    {
      "anonymous": false,
      "inputs": [
        {
          "indexed": true,
          "internalType": "address",
          "name": "previousOwner",
          "type": "address"
        },
        {
          "indexed": true,
          "internalType": "address",
          "name": "newOwner",
          "type": "address"
        }
      ],
      "name": "OwnershipTransferred",
      "type": "event"
    },
    {
      "anonymous": false,
      "inputs": [
        {
          "indexed": true,
          "internalType": "address",
          "name": "from",
          "type": "address"
        },
        {
          "indexed": true,
          "internalType": "address",
          "name": "to",
          "type": "address"
        },
        {
          "indexed": true,
          "internalType": "uint256",
          "name": "tokenId",
          "type": "uint256"
        }
      ],
      "name": "Transfer",
      "type": "event"
    },
    {
      "inputs": [],
      "name": "Owner",
      "outputs": [
        {
          "internalType": "address",
          "name": "",
          "type": "address"
        }
      ],
      "stateMutability": "view",
      "type": "function"
    },
    {
      "inputs": [
        {
          "internalType": "address",
          "name": "to",
          "type": "address"
        },
        {
          "internalType": "uint256",
          "name": "tokenId",
          "type": "uint256"
        }
      ],
      "name": "approve",
      "outputs": [],
      "stateMutability": "nonpayable",
      "type": "function"
    },
    {
      "inputs": [
        {
          "internalType": "address",
          "name": "owner",
          "type": "address"
        }
      ],
      "name": "balanceOf",
      "outputs": [
        {
          "internalType": "uint256",
          "name": "",
          "type": "uint256"
        }
      ],
      "stateMutability": "view",
      "type": "function"
    },
    {
      "inputs": [],
      "name": "baseURI",
      "outputs": [
        {
          "internalType": "string",
          "name": "",
          "type": "string"
        }
      ],
      "stateMutability": "view",
      "type": "function"
    },
    {
      "inputs": [],
      "name": "cost",
      "outputs": [
        {
          "internalType": "uint256",
          "name": "",
          "type": "uint256"
        }
      ],
      "stateMutability": "view",
      "type": "function"
    },
    {
      "inputs": [
        {
          "internalType": "uint256",
          "name": "tokenId",
          "type": "uint256"
        }
      ],
      "name": "getApproved",
      "outputs": [
        {
          "internalType": "address",
          "name": "",
          "type": "address"
        }
      ],
      "stateMutability": "view",
      "type": "function"
    },
    {
      "inputs": [],
      "name": "getBalance",
      "outputs": [
        {
          "internalType": "uint256",
          "name": "",
          "type": "uint256"
        }
      ],
      "stateMutability": "view",
      "type": "function"
    },
    {
      "inputs": [
        {
          "internalType": "address",
          "name": "owner",
          "type": "address"
        },
        {
          "internalType": "address",
          "name": "operator",
          "type": "address"
        }
      ],
      "name": "isApprovedForAll",
      "outputs": [
        {
          "internalType": "bool",
          "name": "",
          "type": "bool"
        }
      ],
      "stateMutability": "view",
      "type": "function"
    },
    {
      "inputs": [],
      "name": "maxMintAmount",
      "outputs": [
        {
          "internalType": "uint256",
          "name": "",
          "type": "uint256"
        }
      ],
      "stateMutability": "view",
      "type": "function"
    },
    {
      "inputs": [],
      "name": "maxSupply",
      "outputs": [
        {
          "internalType": "uint256",
          "name": "",
          "type": "uint256"
        }
      ],
      "stateMutability": "view",
      "type": "function"
    },
    {
      "inputs": [
        {
          "internalType": "uint256",
          "name": "_mintAmount",
          "type": "uint256"
        }
      ],
      "name": "mint",
      "outputs": [],
      "stateMutability": "payable",
      "type": "function"
    },
    {
      "inputs": [],
      "name": "name",
      "outputs": [
        {
          "internalType": "string",
          "name": "",
          "type": "string"
        }
      ],
      "stateMutability": "view",
      "type": "function"
    },
    {
      "inputs": [],
      "name": "owner",
      "outputs": [
        {
          "internalType": "address",
          "name": "",
          "type": "address"
        }
      ],
      "stateMutability": "view",
      "type": "function"
    },
    {
      "inputs": [
        {
          "internalType": "uint256",
          "name": "tokenId",
          "type": "uint256"
        }
      ],
      "name": "ownerOf",
      "outputs": [
        {
          "internalType": "address",
          "name": "",
          "type": "address"
        }
      ],
      "stateMutability": "view",
      "type": "function"
    },
    {
      "inputs": [],
      "name": "pause",
      "outputs": [],
      "stateMutability": "nonpayable",
      "type": "function"
    },
    {
      "inputs": [],
      "name": "paused",
      "outputs": [
        {
          "internalType": "bool",
          "name": "",
          "type": "bool"
        }
      ],
      "stateMutability": "view",
      "type": "function"
    },
    {
      "inputs": [],
      "name": "renounceOwnership",
      "outputs": [],
      "stateMutability": "nonpayable",
      "type": "function"
    },
    {
      "inputs": [
        {
          "internalType": "address",
          "name": "from",
          "type": "address"
        },
        {
          "internalType": "address",
          "name": "to",
          "type": "address"
        },
        {
          "internalType": "uint256",
          "name": "tokenId",
          "type": "uint256"
        }
      ],
      "name": "safeTransferFrom",
      "outputs": [],
      "stateMutability": "nonpayable",
      "type": "function"
    },
    {
      "inputs": [
        {
          "internalType": "address",
          "name": "from",
          "type": "address"
        },
        {
          "internalType": "address",
          "name": "to",
          "type": "address"
        },
        {
          "internalType": "uint256",
          "name": "tokenId",
          "type": "uint256"
        },
        {
          "internalType": "bytes",
          "name": "data",
          "type": "bytes"
        }
      ],
      "name": "safeTransferFrom",
      "outputs": [],
      "stateMutability": "nonpayable",
      "type": "function"
    },
    {
      "inputs": [
        {
          "internalType": "address",
          "name": "operator",
          "type": "address"
        },
        {
          "internalType": "bool",
          "name": "approved",
          "type": "bool"
        }
      ],
      "name": "setApprovalForAll",
      "outputs": [],
      "stateMutability": "nonpayable",
      "type": "function"
    },
    {
      "inputs": [
        {
          "internalType": "string",
          "name": "_newBaseURI",
          "type": "string"
        }
      ],
      "name": "setBaseURI",
      "outputs": [],
      "stateMutability": "nonpayable",
      "type": "function"
    },
    {
      "inputs": [
        {
          "internalType": "uint256",
          "name": "_newCost",
          "type": "uint256"
        }
      ],
      "name": "setCost",
      "outputs": [],
      "stateMutability": "nonpayable",
      "type": "function"
    },
    {
      "inputs": [
        {
          "internalType": "uint256",
          "name": "_newMaxSupply",
          "type": "uint256"
        }
      ],
      "name": "setMaxSupply",
      "outputs": [],
      "stateMutability": "nonpayable",
      "type": "function"
    },
    {
      "inputs": [
        {
          "internalType": "uint256",
          "name": "_newmaxMintAmount",
          "type": "uint256"
        }
      ],
      "name": "setmaxMintAmount",
      "outputs": [],
      "stateMutability": "nonpayable",
      "type": "function"
    },
    {
      "inputs": [
        {
          "internalType": "bytes4",
          "name": "interfaceId",
          "type": "bytes4"
        }
      ],
      "name": "supportsInterface",
      "outputs": [
        {
          "internalType": "bool",
          "name": "",
          "type": "bool"
        }
      ],
      "stateMutability": "view",
      "type": "function"
    },
    {
      "inputs": [],
      "name": "symbol",
      "outputs": [
        {
          "internalType": "string",
          "name": "",
          "type": "string"
        }
      ],
      "stateMutability": "view",
      "type": "function"
    },
    {
      "inputs": [
        {
          "internalType": "uint256",
          "name": "index",
          "type": "uint256"
        }
      ],
      "name": "tokenByIndex",
      "outputs": [
        {
          "internalType": "uint256",
          "name": "",
          "type": "uint256"
        }
      ],
      "stateMutability": "view",
      "type": "function"
    },
    {
      "inputs": [
        {
          "internalType": "address",
          "name": "owner",
          "type": "address"
        },
        {
          "internalType": "uint256",
          "name": "index",
          "type": "uint256"
        }
      ],
      "name": "tokenOfOwnerByIndex",
      "outputs": [
        {
          "internalType": "uint256",
          "name": "",
          "type": "uint256"
        }
      ],
      "stateMutability": "view",
      "type": "function"
    },
    {
      "inputs": [
        {
          "internalType": "uint256",
          "name": "tokenId",
          "type": "uint256"
        }
      ],
      "name": "tokenURI",
      "outputs": [
        {
          "internalType": "string",
          "name": "",
          "type": "string"
        }
      ],
      "stateMutability": "view",
      "type": "function"
    },
    {
      "inputs": [],
      "name": "totalSupply",
      "outputs": [
        {
          "internalType": "uint256",
          "name": "",
          "type": "uint256"
        }
      ],
      "stateMutability": "view",
      "type": "function"
    },
    {
      "inputs": [
        {
          "internalType": "address",
          "name": "from",
          "type": "address"
        },
        {
          "internalType": "address",
          "name": "to",
          "type": "address"
        },
        {
          "internalType": "uint256",
          "name": "tokenId",
          "type": "uint256"
        }
      ],
      "name": "transferFrom",
      "outputs": [],
      "stateMutability": "nonpayable",
      "type": "function"
    },
    {
      "inputs": [
        {
          "internalType": "address",
          "name": "newOwner",
          "type": "address"
        }
      ],
      "name": "transferOwnership",
      "outputs": [],
      "stateMutability": "nonpayable",
      "type": "function"
    },
    {
      "inputs": [
        {
          "internalType": "address",
          "name": "_owner",
          "type": "address"
        }
      ],
      "name": "walletOfOwner",
      "outputs": [
        {
          "internalType": "uint256[]",
          "name": "",
          "type": "uint256[]"
        }
      ],
      "stateMutability": "view",
      "type": "function"
    },
    {
      "inputs": [
        {
          "internalType": "address",
          "name": "_to",
          "type": "address"
        }
      ],
      "name": "withdraw",
      "outputs": [],
      "stateMutability": "payable",
      "type": "function"
    }
  ],
  "bytecode": "0x608060405273c98e9c69119eb0b764b0d5dcbc1532de8bfc2d4f600c60006101000a81548173ffffffffffffffffffffffffffffffffffffffff021916908373ffffffffffffffffffffffffffffffffffffffff160217905550604051806060016040528060358152602001620041be60359139600d90805190602001906200008a9291906200024d565b506000600e60006101000a81548160ff02191690831515021790555064e8d4a51000600f55601460105560036011556040518060400160405280600981526020017f53686f704e6674543300000000000000000000000000000000000000000000008152506040518060400160405280600481526020017f534e54330000000000000000000000000000000000000000000000000000000081525081600090805190602001906200013d9291906200024d565b508060019080519060200190620001569291906200024d565b505050620001796200016d6200017f60201b60201c565b6200018760201b60201c565b62000362565b600033905090565b6000600a60009054906101000a900473ffffffffffffffffffffffffffffffffffffffff16905081600a60006101000a81548173ffffffffffffffffffffffffffffffffffffffff021916908373ffffffffffffffffffffffffffffffffffffffff1602179055508173ffffffffffffffffffffffffffffffffffffffff168173ffffffffffffffffffffffffffffffffffffffff167f8be0079c531659141344cd1fd0a4f28419497f9722a3daafe3b4186f6b6457e060405160405180910390a35050565b8280546200025b90620002fd565b90600052602060002090601f0160209004810192826200027f5760008555620002cb565b82601f106200029a57805160ff1916838001178555620002cb565b82800160010185558215620002cb579182015b82811115620002ca578251825591602001919060010190620002ad565b5b509050620002da9190620002de565b5090565b5b80821115620002f9576000816000905550600101620002df565b5090565b600060028204905060018216806200031657607f821691505b602082108114156200032d576200032c62000333565b5b50919050565b7f4e487b7100000000000000000000000000000000000000000000000000000000600052602260045260246000fd5b613e4c80620003726000396000f3fe6080604052600436106101f95760003560e01c80636352211e1161010d57806395d89b41116100a0578063b88d4fde1161006f578063b88d4fde14610705578063c87b56dd1461072e578063d5abeb011461076b578063e985e9c514610796578063f2fde38b146107d3576101f9565b806395d89b411461066a578063a0712d6814610695578063a22cb465146106b1578063b4a99a4e146106da576101f9565b8063715018a6116100dc578063715018a6146105e85780637f00c7a6146105ff5780638456cb59146106285780638da5cb5b1461063f576101f9565b80636352211e1461051a5780636c0360eb146105575780636f8b44b01461058257806370a08231146105ab576101f9565b806323b872dd1161019057806344a0d68a1161015f57806344a0d68a146104445780634f6ccce71461046d57806351cff8d9146104aa57806355f804b3146104c65780635c975abb146104ef576101f9565b806323b872dd146103785780632f745c59146103a157806342842e0e146103de578063438b630014610407576101f9565b806312065fe0116101cc57806312065fe0146102cc57806313faede6146102f757806318160ddd14610322578063239c70ae1461034d576101f9565b806301ffc9a7146101fe57806306fdde031461023b578063081812fc14610266578063095ea7b3146102a3575b600080fd5b34801561020a57600080fd5b5061022560048036038101906102209190612c44565b6107fc565b60405161023291906131d4565b60405180910390f35b34801561024757600080fd5b50610250610876565b60405161025d91906131ef565b60405180910390f35b34801561027257600080fd5b5061028d60048036038101906102889190612cd7565b610908565b60405161029a919061314b565b60405180910390f35b3480156102af57600080fd5b506102ca60048036038101906102c59190612c08565b61094e565b005b3480156102d857600080fd5b506102e1610a66565b6040516102ee9190613451565b60405180910390f35b34801561030357600080fd5b5061030c610a6e565b6040516103199190613451565b60405180910390f35b34801561032e57600080fd5b50610337610a74565b6040516103449190613451565b60405180910390f35b34801561035957600080fd5b50610362610a7e565b60405161036f9190613451565b60405180910390f35b34801561038457600080fd5b5061039f600480360381019061039a9190612b02565b610a84565b005b3480156103ad57600080fd5b506103c860048036038101906103c39190612c08565b610ae4565b6040516103d59190613451565b60405180910390f35b3480156103ea57600080fd5b5061040560048036038101906104009190612b02565b610b89565b005b34801561041357600080fd5b5061042e60048036038101906104299190612a9d565b610ba9565b60405161043b91906131b2565b60405180910390f35b34801561045057600080fd5b5061046b60048036038101906104669190612cd7565b610ca3565b005b34801561047957600080fd5b50610494600480360381019061048f9190612cd7565b610cb5565b6040516104a19190613451565b60405180910390f35b6104c460048036038101906104bf9190612a9d565b610d4c565b005b3480156104d257600080fd5b506104ed60048036038101906104e89190612c96565b610df8565b005b3480156104fb57600080fd5b50610504610e1a565b60405161051191906131d4565b60405180910390f35b34801561052657600080fd5b50610541600480360381019061053c9190612cd7565b610e2d565b60405161054e919061314b565b60405180910390f35b34801561056357600080fd5b5061056c610edf565b60405161057991906131ef565b60405180910390f35b34801561058e57600080fd5b506105a960048036038101906105a49190612cd7565b610f6d565b005b3480156105b757600080fd5b506105d260048036038101906105cd9190612a9d565b610f7f565b6040516105df9190613451565b60405180910390f35b3480156105f457600080fd5b506105fd611037565b005b34801561060b57600080fd5b5061062660048036038101906106219190612cd7565b61104b565b005b34801561063457600080fd5b5061063d61105d565b005b34801561064b57600080fd5b50610654611091565b604051610661919061314b565b60405180910390f35b34801561067657600080fd5b5061067f6110bb565b60405161068c91906131ef565b60405180910390f35b6106af60048036038101906106aa9190612cd7565b61114d565b005b3480156106bd57600080fd5b506106d860048036038101906106d39190612bcc565b61128d565b005b3480156106e657600080fd5b506106ef6112a3565b6040516106fc919061314b565b60405180910390f35b34801561071157600080fd5b5061072c60048036038101906107279190612b51565b6112c9565b005b34801561073a57600080fd5b5061075560048036038101906107509190612cd7565b61132b565b60405161076291906131ef565b60405180910390f35b34801561077757600080fd5b50610780611455565b60405161078d9190613451565b60405180910390f35b3480156107a257600080fd5b506107bd60048036038101906107b89190612ac6565b61145b565b6040516107ca91906131d4565b60405180910390f35b3480156107df57600080fd5b506107fa60048036038101906107f59190612a9d565b6114ef565b005b60007f780e9d63000000000000000000000000000000000000000000000000000000007bffffffffffffffffffffffffffffffffffffffffffffffffffffffff1916827bffffffffffffffffffffffffffffffffffffffffffffffffffffffff1916148061086f575061086e82611573565b5b9050919050565b6060600080546108859061373a565b80601f01602080910402602001604051908101604052809291908181526020018280546108b19061373a565b80156108fe5780601f106108d3576101008083540402835291602001916108fe565b820191906000526020600020905b8154815290600101906020018083116108e157829003601f168201915b5050505050905090565b600061091382611655565b6004600083815260200190815260200160002060009054906101000a900473ffffffffffffffffffffffffffffffffffffffff169050919050565b600061095982610e2d565b90508073ffffffffffffffffffffffffffffffffffffffff168373ffffffffffffffffffffffffffffffffffffffff1614156109ca576040517f08c379a00000000000000000000000000000000000000000000000000000000081526004016109c1906133f1565b60405180910390fd5b8073ffffffffffffffffffffffffffffffffffffffff166109e96116a0565b73ffffffffffffffffffffffffffffffffffffffff161480610a185750610a1781610a126116a0565b61145b565b5b610a57576040517f08c379a0000000000000000000000000000000000000000000000000000000008152600401610a4e90613351565b60405180910390fd5b610a6183836116a8565b505050565b600047905090565b600f5481565b6000601054905090565b60115481565b610a95610a8f6116a0565b82611761565b610ad4576040517f08c379a0000000000000000000000000000000000000000000000000000000008152600401610acb90613431565b60405180910390fd5b610adf8383836117f6565b505050565b6000610aef83610f7f565b8210610b30576040517f08c379a0000000000000000000000000000000000000000000000000000000008152600401610b2790613231565b60405180910390fd5b600660008473ffffffffffffffffffffffffffffffffffffffff1673ffffffffffffffffffffffffffffffffffffffff168152602001908152602001600020600083815260200190815260200160002054905092915050565b610ba4838383604051806020016040528060008152506112c9565b505050565b60606000610bb683610f7f565b905060008167ffffffffffffffff811115610bfa577f4e487b7100000000000000000000000000000000000000000000000000000000600052604160045260246000fd5b604051908082528060200260200182016040528015610c285781602001602082028036833780820191505090505b50905060005b82811015610c9857610c408582610ae4565b828281518110610c79577f4e487b7100000000000000000000000000000000000000000000000000000000600052603260045260246000fd5b6020026020010181815250508080610c909061379d565b915050610c2e565b508092505050919050565b610cab611a5d565b80600f8190555050565b6000610cbf611adb565b8210610d00576040517f08c379a0000000000000000000000000000000000000000000000000000000008152600401610cf790613411565b60405180910390fd5b60088281548110610d3a577f4e487b7100000000000000000000000000000000000000000000000000000000600052603260045260246000fd5b90600052602060002001549050919050565b610d54611a5d565b8073ffffffffffffffffffffffffffffffffffffffff16600c60009054906101000a900473ffffffffffffffffffffffffffffffffffffffff1673ffffffffffffffffffffffffffffffffffffffff1614610dae57600080fd5b8073ffffffffffffffffffffffffffffffffffffffff166108fc479081150290604051600060405180830381858888f19350505050158015610df4573d6000803e3d6000fd5b5050565b610e00611a5d565b80600d9080519060200190610e169291906128c1565b5050565b600e60009054906101000a900460ff1681565b6000806002600084815260200190815260200160002060009054906101000a900473ffffffffffffffffffffffffffffffffffffffff169050600073ffffffffffffffffffffffffffffffffffffffff168173ffffffffffffffffffffffffffffffffffffffff161415610ed6576040517f08c379a0000000000000000000000000000000000000000000000000000000008152600401610ecd906133d1565b60405180910390fd5b80915050919050565b600d8054610eec9061373a565b80601f0160208091040260200160405190810160405280929190818152602001828054610f189061373a565b8015610f655780601f10610f3a57610100808354040283529160200191610f65565b820191906000526020600020905b815481529060010190602001808311610f4857829003601f168201915b505050505081565b610f75611a5d565b8060108190555050565b60008073ffffffffffffffffffffffffffffffffffffffff168273ffffffffffffffffffffffffffffffffffffffff161415610ff0576040517f08c379a0000000000000000000000000000000000000000000000000000000008152600401610fe790613331565b60405180910390fd5b600360008373ffffffffffffffffffffffffffffffffffffffff1673ffffffffffffffffffffffffffffffffffffffff168152602001908152602001600020549050919050565b61103f611a5d565b6110496000611ae8565b565b611053611a5d565b8060118190555050565b611065611a5d565b600e60009054906101000a900460ff1615600e60006101000a81548160ff021916908315150217905550565b6000600a60009054906101000a900473ffffffffffffffffffffffffffffffffffffffff16905090565b6060600180546110ca9061373a565b80601f01602080910402602001604051908101604052809291908181526020018280546110f69061373a565b80156111435780601f1061111857610100808354040283529160200191611143565b820191906000526020600020905b81548152906001019060200180831161112657829003601f168201915b5050505050905090565b60011515600e60009054906101000a900460ff16151514156111a4576040517f08c379a000000000000000000000000000000000000000000000000000000000815260040161119b90613211565b60405180910390fd5b600081116111b157600080fd5b6011548111156111c057600080fd5b3481600f546111cf91906135f6565b1115611210576040517f08c379a000000000000000000000000000000000000000000000000000000000815260040161120790613311565b60405180910390fd5b60005b818110156112895760006001611229600b611bae565b611233919061356f565b90505b61123f81611bbc565b1561125757818061124f9061379d565b925050611236565b60105481116112755761126a3382611c28565b611274600b611c46565b5b5080806112819061379d565b915050611213565b5050565b61129f6112986116a0565b8383611c5c565b5050565b600c60009054906101000a900473ffffffffffffffffffffffffffffffffffffffff1681565b6112da6112d46116a0565b83611761565b611319576040517f08c379a000000000000000000000000000000000000000000000000000000000815260040161131090613431565b60405180910390fd5b61132584848484611dc9565b50505050565b606061133682611bbc565b611375576040517f08c379a000000000000000000000000000000000000000000000000000000000815260040161136c906133b1565b60405180910390fd5b6000600d80546113849061373a565b80601f01602080910402602001604051908101604052809291908181526020018280546113b09061373a565b80156113fd5780601f106113d2576101008083540402835291602001916113fd565b820191906000526020600020905b8154815290600101906020018083116113e057829003601f168201915b505050505090506000815111611422576040518060200160405280600081525061144d565b8061142c84611e25565b60405160200161143d929190613111565b6040516020818303038152906040525b915050919050565b60105481565b6000600560008473ffffffffffffffffffffffffffffffffffffffff1673ffffffffffffffffffffffffffffffffffffffff16815260200190815260200160002060008373ffffffffffffffffffffffffffffffffffffffff1673ffffffffffffffffffffffffffffffffffffffff16815260200190815260200160002060009054906101000a900460ff16905092915050565b6114f7611a5d565b600073ffffffffffffffffffffffffffffffffffffffff168173ffffffffffffffffffffffffffffffffffffffff161415611567576040517f08c379a000000000000000000000000000000000000000000000000000000000815260040161155e90613271565b60405180910390fd5b61157081611ae8565b50565b60007f80ac58cd000000000000000000000000000000000000000000000000000000007bffffffffffffffffffffffffffffffffffffffffffffffffffffffff1916827bffffffffffffffffffffffffffffffffffffffffffffffffffffffff1916148061163e57507f5b5e139f000000000000000000000000000000000000000000000000000000007bffffffffffffffffffffffffffffffffffffffffffffffffffffffff1916827bffffffffffffffffffffffffffffffffffffffffffffffffffffffff1916145b8061164e575061164d82611fd2565b5b9050919050565b61165e81611bbc565b61169d576040517f08c379a0000000000000000000000000000000000000000000000000000000008152600401611694906133d1565b60405180910390fd5b50565b600033905090565b816004600083815260200190815260200160002060006101000a81548173ffffffffffffffffffffffffffffffffffffffff021916908373ffffffffffffffffffffffffffffffffffffffff160217905550808273ffffffffffffffffffffffffffffffffffffffff1661171b83610e2d565b73ffffffffffffffffffffffffffffffffffffffff167f8c5be1e5ebec7d5bd14f71427d1e84f3dd0314c0f7b2291e5b200ac8c7c3b92560405160405180910390a45050565b60008061176d83610e2d565b90508073ffffffffffffffffffffffffffffffffffffffff168473ffffffffffffffffffffffffffffffffffffffff1614806117af57506117ae818561145b565b5b806117ed57508373ffffffffffffffffffffffffffffffffffffffff166117d584610908565b73ffffffffffffffffffffffffffffffffffffffff16145b91505092915050565b8273ffffffffffffffffffffffffffffffffffffffff1661181682610e2d565b73ffffffffffffffffffffffffffffffffffffffff161461186c576040517f08c379a000000000000000000000000000000000000000000000000000000000815260040161186390613291565b60405180910390fd5b600073ffffffffffffffffffffffffffffffffffffffff168273ffffffffffffffffffffffffffffffffffffffff1614156118dc576040517f08c379a00000000000000000000000000000000000000000000000000000000081526004016118d3906132d1565b60405180910390fd5b6118e783838361203c565b6118f26000826116a8565b6001600360008573ffffffffffffffffffffffffffffffffffffffff1673ffffffffffffffffffffffffffffffffffffffff16815260200190815260200160002060008282546119429190613650565b925050819055506001600360008473ffffffffffffffffffffffffffffffffffffffff1673ffffffffffffffffffffffffffffffffffffffff1681526020019081526020016000206000828254611999919061356f565b92505081905550816002600083815260200190815260200160002060006101000a81548173ffffffffffffffffffffffffffffffffffffffff021916908373ffffffffffffffffffffffffffffffffffffffff160217905550808273ffffffffffffffffffffffffffffffffffffffff168473ffffffffffffffffffffffffffffffffffffffff167fddf252ad1be2c89b69c2b068fc378daa952ba7f163c4a11628f55a4df523b3ef60405160405180910390a4611a58838383612150565b505050565b611a656116a0565b73ffffffffffffffffffffffffffffffffffffffff16611a83611091565b73ffffffffffffffffffffffffffffffffffffffff1614611ad9576040517f08c379a0000000000000000000000000000000000000000000000000000000008152600401611ad090613391565b60405180910390fd5b565b6000600880549050905090565b6000600a60009054906101000a900473ffffffffffffffffffffffffffffffffffffffff16905081600a60006101000a81548173ffffffffffffffffffffffffffffffffffffffff021916908373ffffffffffffffffffffffffffffffffffffffff1602179055508173ffffffffffffffffffffffffffffffffffffffff168173ffffffffffffffffffffffffffffffffffffffff167f8be0079c531659141344cd1fd0a4f28419497f9722a3daafe3b4186f6b6457e060405160405180910390a35050565b600081600001549050919050565b60008073ffffffffffffffffffffffffffffffffffffffff166002600084815260200190815260200160002060009054906101000a900473ffffffffffffffffffffffffffffffffffffffff1673ffffffffffffffffffffffffffffffffffffffff1614159050919050565b611c42828260405180602001604052806000815250612155565b5050565b6001816000016000828254019250508190555050565b8173ffffffffffffffffffffffffffffffffffffffff168373ffffffffffffffffffffffffffffffffffffffff161415611ccb576040517f08c379a0000000000000000000000000000000000000000000000000000000008152600401611cc2906132f1565b60405180910390fd5b80600560008573ffffffffffffffffffffffffffffffffffffffff1673ffffffffffffffffffffffffffffffffffffffff16815260200190815260200160002060008473ffffffffffffffffffffffffffffffffffffffff1673ffffffffffffffffffffffffffffffffffffffff16815260200190815260200160002060006101000a81548160ff0219169083151502179055508173ffffffffffffffffffffffffffffffffffffffff168373ffffffffffffffffffffffffffffffffffffffff167f17307eab39ab6107e8899845ad3d59bd9653f200f220920489ca2b5937696c3183604051611dbc91906131d4565b60405180910390a3505050565b611dd48484846117f6565b611de0848484846121b0565b611e1f576040517f08c379a0000000000000000000000000000000000000000000000000000000008152600401611e1690613251565b60405180910390fd5b50505050565b60606000821415611e6d576040518060400160405280600181526020017f30000000000000000000000000000000000000000000000000000000000000008152509050611fcd565b600082905060005b60008214611e9f578080611e889061379d565b915050600a82611e9891906135c5565b9150611e75565b60008167ffffffffffffffff811115611ee1577f4e487b7100000000000000000000000000000000000000000000000000000000600052604160045260246000fd5b6040519080825280601f01601f191660200182016040528015611f135781602001600182028036833780820191505090505b5090505b60008514611fc657600182611f2c9190613650565b9150600a85611f3b91906137e6565b6030611f47919061356f565b60f81b818381518110611f83577f4e487b7100000000000000000000000000000000000000000000000000000000600052603260045260246000fd5b60200101907effffffffffffffffffffffffffffffffffffffffffffffffffffffffffffff1916908160001a905350600a85611fbf91906135c5565b9450611f17565b8093505050505b919050565b60007f01ffc9a7000000000000000000000000000000000000000000000000000000007bffffffffffffffffffffffffffffffffffffffffffffffffffffffff1916827bffffffffffffffffffffffffffffffffffffffffffffffffffffffff1916149050919050565b612047838383612347565b600073ffffffffffffffffffffffffffffffffffffffff168373ffffffffffffffffffffffffffffffffffffffff16141561208a576120858161234c565b6120c9565b8173ffffffffffffffffffffffffffffffffffffffff168373ffffffffffffffffffffffffffffffffffffffff16146120c8576120c78382612395565b5b5b600073ffffffffffffffffffffffffffffffffffffffff168273ffffffffffffffffffffffffffffffffffffffff16141561210c5761210781612502565b61214b565b8273ffffffffffffffffffffffffffffffffffffffff168273ffffffffffffffffffffffffffffffffffffffff161461214a576121498282612645565b5b5b505050565b505050565b61215f83836126c4565b61216c60008484846121b0565b6121ab576040517f08c379a00000000000000000000000000000000000000000000000000000000081526004016121a290613251565b60405180910390fd5b505050565b60006121d18473ffffffffffffffffffffffffffffffffffffffff1661289e565b1561233a578373ffffffffffffffffffffffffffffffffffffffff1663150b7a026121fa6116a0565b8786866040518563ffffffff1660e01b815260040161221c9493929190613166565b602060405180830381600087803b15801561223657600080fd5b505af192505050801561226757506040513d601f19601f820116820180604052508101906122649190612c6d565b60015b6122ea573d8060008114612297576040519150601f19603f3d011682016040523d82523d6000602084013e61229c565b606091505b506000815114156122e2576040517f08c379a00000000000000000000000000000000000000000000000000000000081526004016122d990613251565b60405180910390fd5b805181602001fd5b63150b7a0260e01b7bffffffffffffffffffffffffffffffffffffffffffffffffffffffff1916817bffffffffffffffffffffffffffffffffffffffffffffffffffffffff19161491505061233f565b600190505b949350505050565b505050565b6008805490506009600083815260200190815260200160002081905550600881908060018154018082558091505060019003906000526020600020016000909190919091505550565b600060016123a284610f7f565b6123ac9190613650565b9050600060076000848152602001908152602001600020549050818114612491576000600660008673ffffffffffffffffffffffffffffffffffffffff1673ffffffffffffffffffffffffffffffffffffffff168152602001908152602001600020600084815260200190815260200160002054905080600660008773ffffffffffffffffffffffffffffffffffffffff1673ffffffffffffffffffffffffffffffffffffffff168152602001908152602001600020600084815260200190815260200160002081905550816007600083815260200190815260200160002081905550505b6007600084815260200190815260200160002060009055600660008573ffffffffffffffffffffffffffffffffffffffff1673ffffffffffffffffffffffffffffffffffffffff16815260200190815260200160002060008381526020019081526020016000206000905550505050565b600060016008805490506125169190613650565b905060006009600084815260200190815260200160002054905060006008838154811061256c577f4e487b7100000000000000000000000000000000000000000000000000000000600052603260045260246000fd5b9060005260206000200154905080600883815481106125b4577f4e487b7100000000000000000000000000000000000000000000000000000000600052603260045260246000fd5b906000526020600020018190555081600960008381526020019081526020016000208190555060096000858152602001908152602001600020600090556008805480612629577f4e487b7100000000000000000000000000000000000000000000000000000000600052603160045260246000fd5b6001900381819060005260206000200160009055905550505050565b600061265083610f7f565b905081600660008573ffffffffffffffffffffffffffffffffffffffff1673ffffffffffffffffffffffffffffffffffffffff168152602001908152602001600020600083815260200190815260200160002081905550806007600084815260200190815260200160002081905550505050565b600073ffffffffffffffffffffffffffffffffffffffff168273ffffffffffffffffffffffffffffffffffffffff161415612734576040517f08c379a000000000000000000000000000000000000000000000000000000000815260040161272b90613371565b60405180910390fd5b61273d81611bbc565b1561277d576040517f08c379a0000000000000000000000000000000000000000000000000000000008152600401612774906132b1565b60405180910390fd5b6127896000838361203c565b6001600360008473ffffffffffffffffffffffffffffffffffffffff1673ffffffffffffffffffffffffffffffffffffffff16815260200190815260200160002060008282546127d9919061356f565b92505081905550816002600083815260200190815260200160002060006101000a81548173ffffffffffffffffffffffffffffffffffffffff021916908373ffffffffffffffffffffffffffffffffffffffff160217905550808273ffffffffffffffffffffffffffffffffffffffff16600073ffffffffffffffffffffffffffffffffffffffff167fddf252ad1be2c89b69c2b068fc378daa952ba7f163c4a11628f55a4df523b3ef60405160405180910390a461289a60008383612150565b5050565b6000808273ffffffffffffffffffffffffffffffffffffffff163b119050919050565b8280546128cd9061373a565b90600052602060002090601f0160209004810192826128ef5760008555612936565b82601f1061290857805160ff1916838001178555612936565b82800160010185558215612936579182015b8281111561293557825182559160200191906001019061291a565b5b5090506129439190612947565b5090565b5b80821115612960576000816000905550600101612948565b5090565b600061297761297284613491565b61346c565b90508281526020810184848401111561298f57600080fd5b61299a8482856136f8565b509392505050565b60006129b56129b0846134c2565b61346c565b9050828152602081018484840111156129cd57600080fd5b6129d88482856136f8565b509392505050565b6000813590506129ef81613dba565b92915050565b600081359050612a0481613dd1565b92915050565b600081359050612a1981613de8565b92915050565b600081519050612a2e81613de8565b92915050565b600082601f830112612a4557600080fd5b8135612a55848260208601612964565b91505092915050565b600082601f830112612a6f57600080fd5b8135612a7f8482602086016129a2565b91505092915050565b600081359050612a9781613dff565b92915050565b600060208284031215612aaf57600080fd5b6000612abd848285016129e0565b91505092915050565b60008060408385031215612ad957600080fd5b6000612ae7858286016129e0565b9250506020612af8858286016129e0565b9150509250929050565b600080600060608486031215612b1757600080fd5b6000612b25868287016129e0565b9350506020612b36868287016129e0565b9250506040612b4786828701612a88565b9150509250925092565b60008060008060808587031215612b6757600080fd5b6000612b75878288016129e0565b9450506020612b86878288016129e0565b9350506040612b9787828801612a88565b925050606085013567ffffffffffffffff811115612bb457600080fd5b612bc087828801612a34565b91505092959194509250565b60008060408385031215612bdf57600080fd5b6000612bed858286016129e0565b9250506020612bfe858286016129f5565b9150509250929050565b60008060408385031215612c1b57600080fd5b6000612c29858286016129e0565b9250506020612c3a85828601612a88565b9150509250929050565b600060208284031215612c5657600080fd5b6000612c6484828501612a0a565b91505092915050565b600060208284031215612c7f57600080fd5b6000612c8d84828501612a1f565b91505092915050565b600060208284031215612ca857600080fd5b600082013567ffffffffffffffff811115612cc257600080fd5b612cce84828501612a5e565b91505092915050565b600060208284031215612ce957600080fd5b6000612cf784828501612a88565b91505092915050565b6000612d0c83836130f3565b60208301905092915050565b612d2181613684565b82525050565b6000612d3282613503565b612d3c8185613531565b9350612d47836134f3565b8060005b83811015612d78578151612d5f8882612d00565b9750612d6a83613524565b925050600181019050612d4b565b5085935050505092915050565b612d8e81613696565b82525050565b6000612d9f8261350e565b612da98185613542565b9350612db9818560208601613707565b612dc2816138d3565b840191505092915050565b6000612dd882613519565b612de28185613553565b9350612df2818560208601613707565b612dfb816138d3565b840191505092915050565b6000612e1182613519565b612e1b8185613564565b9350612e2b818560208601613707565b80840191505092915050565b6000612e44601383613553565b9150612e4f826138e4565b602082019050919050565b6000612e67602b83613553565b9150612e728261390d565b604082019050919050565b6000612e8a603283613553565b9150612e958261395c565b604082019050919050565b6000612ead602683613553565b9150612eb8826139ab565b604082019050919050565b6000612ed0602583613553565b9150612edb826139fa565b604082019050919050565b6000612ef3601c83613553565b9150612efe82613a49565b602082019050919050565b6000612f16602483613553565b9150612f2182613a72565b604082019050919050565b6000612f39601983613553565b9150612f4482613ac1565b602082019050919050565b6000612f5c601f83613553565b9150612f6782613aea565b602082019050919050565b6000612f7f602983613553565b9150612f8a82613b13565b604082019050919050565b6000612fa2603e83613553565b9150612fad82613b62565b604082019050919050565b6000612fc5602083613553565b9150612fd082613bb1565b602082019050919050565b6000612fe8600583613564565b9150612ff382613bda565b600582019050919050565b600061300b602083613553565b915061301682613c03565b602082019050919050565b600061302e602f83613553565b915061303982613c2c565b604082019050919050565b6000613051601883613553565b915061305c82613c7b565b602082019050919050565b6000613074602183613553565b915061307f82613ca4565b604082019050919050565b6000613097602c83613553565b91506130a282613cf3565b604082019050919050565b60006130ba602e83613553565b91506130c582613d42565b604082019050919050565b60006130dd600183613564565b91506130e882613d91565b600182019050919050565b6130fc816136ee565b82525050565b61310b816136ee565b82525050565b600061311d8285612e06565b9150613128826130d0565b91506131348284612e06565b915061313f82612fdb565b91508190509392505050565b60006020820190506131606000830184612d18565b92915050565b600060808201905061317b6000830187612d18565b6131886020830186612d18565b6131956040830185613102565b81810360608301526131a78184612d94565b905095945050505050565b600060208201905081810360008301526131cc8184612d27565b905092915050565b60006020820190506131e96000830184612d85565b92915050565b600060208201905081810360008301526132098184612dcd565b905092915050565b6000602082019050818103600083015261322a81612e37565b9050919050565b6000602082019050818103600083015261324a81612e5a565b9050919050565b6000602082019050818103600083015261326a81612e7d565b9050919050565b6000602082019050818103600083015261328a81612ea0565b9050919050565b600060208201905081810360008301526132aa81612ec3565b9050919050565b600060208201905081810360008301526132ca81612ee6565b9050919050565b600060208201905081810360008301526132ea81612f09565b9050919050565b6000602082019050818103600083015261330a81612f2c565b9050919050565b6000602082019050818103600083015261332a81612f4f565b9050919050565b6000602082019050818103600083015261334a81612f72565b9050919050565b6000602082019050818103600083015261336a81612f95565b9050919050565b6000602082019050818103600083015261338a81612fb8565b9050919050565b600060208201905081810360008301526133aa81612ffe565b9050919050565b600060208201905081810360008301526133ca81613021565b9050919050565b600060208201905081810360008301526133ea81613044565b9050919050565b6000602082019050818103600083015261340a81613067565b9050919050565b6000602082019050818103600083015261342a8161308a565b9050919050565b6000602082019050818103600083015261344a816130ad565b9050919050565b60006020820190506134666000830184613102565b92915050565b6000613476613487565b9050613482828261376c565b919050565b6000604051905090565b600067ffffffffffffffff8211156134ac576134ab6138a4565b5b6134b5826138d3565b9050602081019050919050565b600067ffffffffffffffff8211156134dd576134dc6138a4565b5b6134e6826138d3565b9050602081019050919050565b6000819050602082019050919050565b600081519050919050565b600081519050919050565b600081519050919050565b6000602082019050919050565b600082825260208201905092915050565b600082825260208201905092915050565b600082825260208201905092915050565b600081905092915050565b600061357a826136ee565b9150613585836136ee565b9250827fffffffffffffffffffffffffffffffffffffffffffffffffffffffffffffffff038211156135ba576135b9613817565b5b828201905092915050565b60006135d0826136ee565b91506135db836136ee565b9250826135eb576135ea613846565b5b828204905092915050565b6000613601826136ee565b915061360c836136ee565b9250817fffffffffffffffffffffffffffffffffffffffffffffffffffffffffffffffff048311821515161561364557613644613817565b5b828202905092915050565b600061365b826136ee565b9150613666836136ee565b92508282101561367957613678613817565b5b828203905092915050565b600061368f826136ce565b9050919050565b60008115159050919050565b60007fffffffff0000000000000000000000000000000000000000000000000000000082169050919050565b600073ffffffffffffffffffffffffffffffffffffffff82169050919050565b6000819050919050565b82818337600083830152505050565b60005b8381101561372557808201518184015260208101905061370a565b83811115613734576000848401525b50505050565b6000600282049050600182168061375257607f821691505b6020821081141561376657613765613875565b5b50919050565b613775826138d3565b810181811067ffffffffffffffff82111715613794576137936138a4565b5b80604052505050565b60006137a8826136ee565b91507fffffffffffffffffffffffffffffffffffffffffffffffffffffffffffffffff8214156137db576137da613817565b5b600182019050919050565b60006137f1826136ee565b91506137fc836136ee565b92508261380c5761380b613846565b5b828206905092915050565b7f4e487b7100000000000000000000000000000000000000000000000000000000600052601160045260246000fd5b7f4e487b7100000000000000000000000000000000000000000000000000000000600052601260045260246000fd5b7f4e487b7100000000000000000000000000000000000000000000000000000000600052602260045260246000fd5b7f4e487b7100000000000000000000000000000000000000000000000000000000600052604160045260246000fd5b6000601f19601f8301169050919050565b7f53616c65206d7573742062652061637469766500000000000000000000000000600082015250565b7f455243373231456e756d657261626c653a206f776e657220696e646578206f7560008201527f74206f6620626f756e6473000000000000000000000000000000000000000000602082015250565b7f4552433732313a207472616e7366657220746f206e6f6e20455243373231526560008201527f63656976657220696d706c656d656e7465720000000000000000000000000000602082015250565b7f4f776e61626c653a206e6577206f776e657220697320746865207a65726f206160008201527f6464726573730000000000000000000000000000000000000000000000000000602082015250565b7f4552433732313a207472616e736665722066726f6d20696e636f72726563742060008201527f6f776e6572000000000000000000000000000000000000000000000000000000602082015250565b7f4552433732313a20746f6b656e20616c7265616479206d696e74656400000000600082015250565b7f4552433732313a207472616e7366657220746f20746865207a65726f2061646460008201527f7265737300000000000000000000000000000000000000000000000000000000602082015250565b7f4552433732313a20617070726f766520746f2063616c6c657200000000000000600082015250565b7f45746865722076616c75652073656e74206973206e6f7420636f727265637400600082015250565b7f4552433732313a2061646472657373207a65726f206973206e6f74206120766160008201527f6c6964206f776e65720000000000000000000000000000000000000000000000602082015250565b7f4552433732313a20617070726f76652063616c6c6572206973206e6f7420746f60008201527f6b656e206f776e6572206e6f7220617070726f76656420666f7220616c6c0000602082015250565b7f4552433732313a206d696e7420746f20746865207a65726f2061646472657373600082015250565b7f2e6a736f6e000000000000000000000000000000000000000000000000000000600082015250565b7f4f776e61626c653a2063616c6c6572206973206e6f7420746865206f776e6572600082015250565b7f4552433732314d657461646174613a2055524920717565727920666f72206e6f60008201527f6e6578697374656e7420746f6b656e0000000000000000000000000000000000602082015250565b7f4552433732313a20696e76616c696420746f6b656e2049440000000000000000600082015250565b7f4552433732313a20617070726f76616c20746f2063757272656e74206f776e6560008201527f7200000000000000000000000000000000000000000000000000000000000000602082015250565b7f455243373231456e756d657261626c653a20676c6f62616c20696e646578206f60008201527f7574206f6620626f756e64730000000000000000000000000000000000000000602082015250565b7f4552433732313a2063616c6c6572206973206e6f7420746f6b656e206f776e6560008201527f72206e6f7220617070726f766564000000000000000000000000000000000000602082015250565b7f2f00000000000000000000000000000000000000000000000000000000000000600082015250565b613dc381613684565b8114613dce57600080fd5b50565b613dda81613696565b8114613de557600080fd5b50565b613df1816136a2565b8114613dfc57600080fd5b50565b613e08816136ee565b8114613e1357600080fd5b5056fea264697066735822122045d54697a62523f69c62273d2afbe706da7307182fcbab93db08e4e932bec4d564736f6c63430008040033697066733a2f2f516d546e44475133504354546d634d5179384c4b38513156487a4e4d4553634b754b65465053574c4a70676f734c",
  "linkReferences": {},
  "deployedLinkReferences": {}
}