{
  "_format": "hh-sol-artifact-1",
  "contractName": "ShopNFT",
  "sourceName": "contracts/ShopNFT.sol",
  "abi": [
    {
      "inputs": [],
      "stateMutability": "payable",
      "type": "constructor"
    },
    {
      "anonymous": false,
      "inputs": [
        {
          "indexed": true,
          "internalType": "address",
          "name": "owner",
          "type": "address"
        },
        {
          "indexed": true,
          "internalType": "address",
          "name": "approved",
          "type": "address"
        },
        {
          "indexed": true,
          "internalType": "uint256",
          "name": "tokenId",
          "type": "uint256"
        }
      ],
      "name": "Approval",
      "type": "event"
    },
    {
      "anonymous": false,
      "inputs": [
        {
          "indexed": true,
          "internalType": "address",
          "name": "owner",
          "type": "address"
        },
        {
          "indexed": true,
          "internalType": "address",
          "name": "operator",
          "type": "address"
        },
        {
          "indexed": false,
          "internalType": "bool",
          "name": "approved",
          "type": "bool"
        }
      ],
      "name": "ApprovalForAll",
      "type": "event"
    },
    {
      "anonymous": false,
      "inputs": [
        {
          "indexed": true,
          "internalType": "address",
          "name": "previousOwner",
          "type": "address"
        },
        {
          "indexed": true,
          "internalType": "address",
          "name": "newOwner",
          "type": "address"
        }
      ],
      "name": "OwnershipTransferred",
      "type": "event"
    },
    {
      "anonymous": false,
      "inputs": [
        {
          "indexed": true,
          "internalType": "address",
          "name": "from",
          "type": "address"
        },
        {
          "indexed": true,
          "internalType": "address",
          "name": "to",
          "type": "address"
        },
        {
          "indexed": true,
          "internalType": "uint256",
          "name": "tokenId",
          "type": "uint256"
        }
      ],
      "name": "Transfer",
      "type": "event"
    },
    {
      "inputs": [],
      "name": "Owner",
      "outputs": [
        {
          "internalType": "address",
          "name": "",
          "type": "address"
        }
      ],
      "stateMutability": "view",
      "type": "function"
    },
    {
      "inputs": [
        {
          "internalType": "address",
          "name": "to",
          "type": "address"
        },
        {
          "internalType": "uint256",
          "name": "tokenId",
          "type": "uint256"
        }
      ],
      "name": "approve",
      "outputs": [],
      "stateMutability": "nonpayable",
      "type": "function"
    },
    {
      "inputs": [
        {
          "internalType": "address",
          "name": "owner",
          "type": "address"
        }
      ],
      "name": "balanceOf",
      "outputs": [
        {
          "internalType": "uint256",
          "name": "",
          "type": "uint256"
        }
      ],
      "stateMutability": "view",
      "type": "function"
    },
    {
      "inputs": [],
      "name": "baseURI",
      "outputs": [
        {
          "internalType": "string",
          "name": "",
          "type": "string"
        }
      ],
      "stateMutability": "view",
      "type": "function"
    },
    {
      "inputs": [],
      "name": "cost",
      "outputs": [
        {
          "internalType": "uint256",
          "name": "",
          "type": "uint256"
        }
      ],
      "stateMutability": "view",
      "type": "function"
    },
    {
      "inputs": [
        {
          "internalType": "uint256",
          "name": "tokenId",
          "type": "uint256"
        }
      ],
      "name": "getApproved",
      "outputs": [
        {
          "internalType": "address",
          "name": "",
          "type": "address"
        }
      ],
      "stateMutability": "view",
      "type": "function"
    },
    {
      "inputs": [],
      "name": "getBalance",
      "outputs": [
        {
          "internalType": "uint256",
          "name": "",
          "type": "uint256"
        }
      ],
      "stateMutability": "view",
      "type": "function"
    },
    {
      "inputs": [
        {
          "internalType": "address",
          "name": "owner",
          "type": "address"
        },
        {
          "internalType": "address",
          "name": "operator",
          "type": "address"
        }
      ],
      "name": "isApprovedForAll",
      "outputs": [
        {
          "internalType": "bool",
          "name": "",
          "type": "bool"
        }
      ],
      "stateMutability": "view",
      "type": "function"
    },
    {
      "inputs": [],
      "name": "maxMintAmount",
      "outputs": [
        {
          "internalType": "uint256",
          "name": "",
          "type": "uint256"
        }
      ],
      "stateMutability": "view",
      "type": "function"
    },
    {
      "inputs": [],
      "name": "maxSupply",
      "outputs": [
        {
          "internalType": "uint256",
          "name": "",
          "type": "uint256"
        }
      ],
      "stateMutability": "view",
      "type": "function"
    },
    {
      "inputs": [
        {
          "internalType": "uint256",
          "name": "_mintAmount",
          "type": "uint256"
        }
      ],
      "name": "mint",
      "outputs": [],
      "stateMutability": "payable",
      "type": "function"
    },
    {
      "inputs": [],
      "name": "name",
      "outputs": [
        {
          "internalType": "string",
          "name": "",
          "type": "string"
        }
      ],
      "stateMutability": "view",
      "type": "function"
    },
    {
      "inputs": [],
      "name": "owner",
      "outputs": [
        {
          "internalType": "address",
          "name": "",
          "type": "address"
        }
      ],
      "stateMutability": "view",
      "type": "function"
    },
    {
      "inputs": [
        {
          "internalType": "uint256",
          "name": "tokenId",
          "type": "uint256"
        }
      ],
      "name": "ownerOf",
      "outputs": [
        {
          "internalType": "address",
          "name": "",
          "type": "address"
        }
      ],
      "stateMutability": "view",
      "type": "function"
    },
    {
      "inputs": [],
      "name": "pause",
      "outputs": [],
      "stateMutability": "nonpayable",
      "type": "function"
    },
    {
      "inputs": [],
      "name": "paused",
      "outputs": [
        {
          "internalType": "bool",
          "name": "",
          "type": "bool"
        }
      ],
      "stateMutability": "view",
      "type": "function"
    },
    {
      "inputs": [],
      "name": "renounceOwnership",
      "outputs": [],
      "stateMutability": "nonpayable",
      "type": "function"
    },
    {
      "inputs": [
        {
          "internalType": "address",
          "name": "from",
          "type": "address"
        },
        {
          "internalType": "address",
          "name": "to",
          "type": "address"
        },
        {
          "internalType": "uint256",
          "name": "tokenId",
          "type": "uint256"
        }
      ],
      "name": "safeTransferFrom",
      "outputs": [],
      "stateMutability": "nonpayable",
      "type": "function"
    },
    {
      "inputs": [
        {
          "internalType": "address",
          "name": "from",
          "type": "address"
        },
        {
          "internalType": "address",
          "name": "to",
          "type": "address"
        },
        {
          "internalType": "uint256",
          "name": "tokenId",
          "type": "uint256"
        },
        {
          "internalType": "bytes",
          "name": "data",
          "type": "bytes"
        }
      ],
      "name": "safeTransferFrom",
      "outputs": [],
      "stateMutability": "nonpayable",
      "type": "function"
    },
    {
      "inputs": [
        {
          "internalType": "address",
          "name": "operator",
          "type": "address"
        },
        {
          "internalType": "bool",
          "name": "approved",
          "type": "bool"
        }
      ],
      "name": "setApprovalForAll",
      "outputs": [],
      "stateMutability": "nonpayable",
      "type": "function"
    },
    {
      "inputs": [
        {
          "internalType": "string",
          "name": "_newBaseURI",
          "type": "string"
        }
      ],
      "name": "setBaseURI",
      "outputs": [],
      "stateMutability": "nonpayable",
      "type": "function"
    },
    {
      "inputs": [
        {
          "internalType": "uint256",
          "name": "_newCost",
          "type": "uint256"
        }
      ],
      "name": "setCost",
      "outputs": [],
      "stateMutability": "nonpayable",
      "type": "function"
    },
    {
      "inputs": [
        {
          "internalType": "uint256",
          "name": "_newMaxSupply",
          "type": "uint256"
        }
      ],
      "name": "setMaxSupply",
      "outputs": [],
      "stateMutability": "nonpayable",
      "type": "function"
    },
    {
      "inputs": [
        {
          "internalType": "uint256",
          "name": "_newmaxMintAmount",
          "type": "uint256"
        }
      ],
      "name": "setmaxMintAmount",
      "outputs": [],
      "stateMutability": "nonpayable",
      "type": "function"
    },
    {
      "inputs": [],
      "name": "supply",
      "outputs": [
        {
          "internalType": "uint256",
          "name": "",
          "type": "uint256"
        }
      ],
      "stateMutability": "view",
      "type": "function"
    },
    {
      "inputs": [
        {
          "internalType": "bytes4",
          "name": "interfaceId",
          "type": "bytes4"
        }
      ],
      "name": "supportsInterface",
      "outputs": [
        {
          "internalType": "bool",
          "name": "",
          "type": "bool"
        }
      ],
      "stateMutability": "view",
      "type": "function"
    },
    {
      "inputs": [],
      "name": "symbol",
      "outputs": [
        {
          "internalType": "string",
          "name": "",
          "type": "string"
        }
      ],
      "stateMutability": "view",
      "type": "function"
    },
    {
      "inputs": [
        {
          "internalType": "uint256",
          "name": "index",
          "type": "uint256"
        }
      ],
      "name": "tokenByIndex",
      "outputs": [
        {
          "internalType": "uint256",
          "name": "",
          "type": "uint256"
        }
      ],
      "stateMutability": "view",
      "type": "function"
    },
    {
      "inputs": [
        {
          "internalType": "address",
          "name": "owner",
          "type": "address"
        },
        {
          "internalType": "uint256",
          "name": "index",
          "type": "uint256"
        }
      ],
      "name": "tokenOfOwnerByIndex",
      "outputs": [
        {
          "internalType": "uint256",
          "name": "",
          "type": "uint256"
        }
      ],
      "stateMutability": "view",
      "type": "function"
    },
    {
      "inputs": [
        {
          "internalType": "uint256",
          "name": "tokenId",
          "type": "uint256"
        }
      ],
      "name": "tokenURI",
      "outputs": [
        {
          "internalType": "string",
          "name": "",
          "type": "string"
        }
      ],
      "stateMutability": "view",
      "type": "function"
    },
    {
      "inputs": [],
      "name": "totalSupply",
      "outputs": [
        {
          "internalType": "uint256",
          "name": "",
          "type": "uint256"
        }
      ],
      "stateMutability": "view",
      "type": "function"
    },
    {
      "inputs": [
        {
          "internalType": "address",
          "name": "from",
          "type": "address"
        },
        {
          "internalType": "address",
          "name": "to",
          "type": "address"
        },
        {
          "internalType": "uint256",
          "name": "tokenId",
          "type": "uint256"
        }
      ],
      "name": "transferFrom",
      "outputs": [],
      "stateMutability": "nonpayable",
      "type": "function"
    },
    {
      "inputs": [
        {
          "internalType": "address",
          "name": "newOwner",
          "type": "address"
        }
      ],
      "name": "transferOwnership",
      "outputs": [],
      "stateMutability": "nonpayable",
      "type": "function"
    },
    {
      "inputs": [
        {
          "internalType": "address",
          "name": "_owner",
          "type": "address"
        }
      ],
      "name": "walletOfOwner",
      "outputs": [
        {
          "internalType": "uint256[]",
          "name": "",
          "type": "uint256[]"
        }
      ],
      "stateMutability": "view",
      "type": "function"
    },
    {
      "inputs": [
        {
          "internalType": "address",
          "name": "_to",
          "type": "address"
        }
      ],
      "name": "withdraw",
      "outputs": [],
      "stateMutability": "payable",
      "type": "function"
    }
  ],
  "bytecode": "0x608060405273c98e9c69119eb0b764b0d5dcbc1532de8bfc2d4f600c60006101000a81548173ffffffffffffffffffffffffffffffffffffffff021916908373ffffffffffffffffffffffffffffffffffffffff1602179055506040518060600160405280603581526020016200422060359139600d90805190602001906200008a92919062000252565b506000600e60006101000a81548160ff02191690831515021790555064e8d4a51000600f556014601055600360115560146012556040518060400160405280600981526020017f53686f704e6674543300000000000000000000000000000000000000000000008152506040518060400160405280600481526020017f534e54330000000000000000000000000000000000000000000000000000000081525081600090805190602001906200014292919062000252565b5080600190805190602001906200015b92919062000252565b5050506200017e620001726200018460201b60201c565b6200018c60201b60201c565b62000367565b600033905090565b6000600a60009054906101000a900473ffffffffffffffffffffffffffffffffffffffff16905081600a60006101000a81548173ffffffffffffffffffffffffffffffffffffffff021916908373ffffffffffffffffffffffffffffffffffffffff1602179055508173ffffffffffffffffffffffffffffffffffffffff168173ffffffffffffffffffffffffffffffffffffffff167f8be0079c531659141344cd1fd0a4f28419497f9722a3daafe3b4186f6b6457e060405160405180910390a35050565b828054620002609062000302565b90600052602060002090601f016020900481019282620002845760008555620002d0565b82601f106200029f57805160ff1916838001178555620002d0565b82800160010185558215620002d0579182015b82811115620002cf578251825591602001919060010190620002b2565b5b509050620002df9190620002e3565b5090565b5b80821115620002fe576000816000905550600101620002e4565b5090565b600060028204905060018216806200031b57607f821691505b6020821081141562000332576200033162000338565b5b50919050565b7f4e487b7100000000000000000000000000000000000000000000000000000000600052602260045260246000fd5b613ea980620003776000396000f3fe6080604052600436106102045760003560e01c80635c975abb1161011857806395d89b41116100a0578063b88d4fde1161006f578063b88d4fde1461073b578063c87b56dd14610764578063d5abeb01146107a1578063e985e9c5146107cc578063f2fde38b1461080957610204565b806395d89b41146106a0578063a0712d68146106cb578063a22cb465146106e7578063b4a99a4e1461071057610204565b806370a08231116100e757806370a08231146105e1578063715018a61461061e5780637f00c7a6146106355780638456cb591461065e5780638da5cb5b1461067557610204565b80635c975abb146105255780636352211e146105505780636c0360eb1461058d5780636f8b44b0146105b857610204565b8063239c70ae1161019b578063438b63001161016a578063438b63001461043d57806344a0d68a1461047a5780634f6ccce7146104a357806351cff8d9146104e057806355f804b3146104fc57610204565b8063239c70ae1461038357806323b872dd146103ae5780632f745c59146103d757806342842e0e1461041457610204565b8063095ea7b3116101d7578063095ea7b3146102d957806312065fe01461030257806313faede61461032d57806318160ddd1461035857610204565b806301ffc9a714610209578063047fc9aa1461024657806306fdde0314610271578063081812fc1461029c575b600080fd5b34801561021557600080fd5b50610230600480360381019061022b9190612ca1565b610832565b60405161023d9190613231565b60405180910390f35b34801561025257600080fd5b5061025b6108ac565b60405161026891906134ae565b60405180910390f35b34801561027d57600080fd5b506102866108b2565b604051610293919061324c565b60405180910390f35b3480156102a857600080fd5b506102c360048036038101906102be9190612d34565b610944565b6040516102d091906131a8565b60405180910390f35b3480156102e557600080fd5b5061030060048036038101906102fb9190612c65565b61098a565b005b34801561030e57600080fd5b50610317610aa2565b60405161032491906134ae565b60405180910390f35b34801561033957600080fd5b50610342610aaa565b60405161034f91906134ae565b60405180910390f35b34801561036457600080fd5b5061036d610ab0565b60405161037a91906134ae565b60405180910390f35b34801561038f57600080fd5b50610398610aba565b6040516103a591906134ae565b60405180910390f35b3480156103ba57600080fd5b506103d560048036038101906103d09190612b5f565b610ac0565b005b3480156103e357600080fd5b506103fe60048036038101906103f99190612c65565b610b20565b60405161040b91906134ae565b60405180910390f35b34801561042057600080fd5b5061043b60048036038101906104369190612b5f565b610bc5565b005b34801561044957600080fd5b50610464600480360381019061045f9190612afa565b610be5565b604051610471919061320f565b60405180910390f35b34801561048657600080fd5b506104a1600480360381019061049c9190612d34565b610cdf565b005b3480156104af57600080fd5b506104ca60048036038101906104c59190612d34565b610cf1565b6040516104d791906134ae565b60405180910390f35b6104fa60048036038101906104f59190612afa565b610d88565b005b34801561050857600080fd5b50610523600480360381019061051e9190612cf3565b610e34565b005b34801561053157600080fd5b5061053a610e56565b6040516105479190613231565b60405180910390f35b34801561055c57600080fd5b5061057760048036038101906105729190612d34565b610e69565b60405161058491906131a8565b60405180910390f35b34801561059957600080fd5b506105a2610f1b565b6040516105af919061324c565b60405180910390f35b3480156105c457600080fd5b506105df60048036038101906105da9190612d34565b610fa9565b005b3480156105ed57600080fd5b5061060860048036038101906106039190612afa565b610fc2565b60405161061591906134ae565b60405180910390f35b34801561062a57600080fd5b5061063361107a565b005b34801561064157600080fd5b5061065c60048036038101906106579190612d34565b61108e565b005b34801561066a57600080fd5b506106736110a0565b005b34801561068157600080fd5b5061068a6110d4565b60405161069791906131a8565b60405180910390f35b3480156106ac57600080fd5b506106b56110fe565b6040516106c2919061324c565b60405180910390f35b6106e560048036038101906106e09190612d34565b611190565b005b3480156106f357600080fd5b5061070e60048036038101906107099190612c29565b6112ea565b005b34801561071c57600080fd5b50610725611300565b60405161073291906131a8565b60405180910390f35b34801561074757600080fd5b50610762600480360381019061075d9190612bae565b611326565b005b34801561077057600080fd5b5061078b60048036038101906107869190612d34565b611388565b604051610798919061324c565b60405180910390f35b3480156107ad57600080fd5b506107b66114b2565b6040516107c391906134ae565b60405180910390f35b3480156107d857600080fd5b506107f360048036038101906107ee9190612b23565b6114b8565b6040516108009190613231565b60405180910390f35b34801561081557600080fd5b50610830600480360381019061082b9190612afa565b61154c565b005b60007f780e9d63000000000000000000000000000000000000000000000000000000007bffffffffffffffffffffffffffffffffffffffffffffffffffffffff1916827bffffffffffffffffffffffffffffffffffffffffffffffffffffffff191614806108a557506108a4826115d0565b5b9050919050565b60125481565b6060600080546108c190613797565b80601f01602080910402602001604051908101604052809291908181526020018280546108ed90613797565b801561093a5780601f1061090f5761010080835404028352916020019161093a565b820191906000526020600020905b81548152906001019060200180831161091d57829003601f168201915b5050505050905090565b600061094f826116b2565b6004600083815260200190815260200160002060009054906101000a900473ffffffffffffffffffffffffffffffffffffffff169050919050565b600061099582610e69565b90508073ffffffffffffffffffffffffffffffffffffffff168373ffffffffffffffffffffffffffffffffffffffff161415610a06576040517f08c379a00000000000000000000000000000000000000000000000000000000081526004016109fd9061344e565b60405180910390fd5b8073ffffffffffffffffffffffffffffffffffffffff16610a256116fd565b73ffffffffffffffffffffffffffffffffffffffff161480610a545750610a5381610a4e6116fd565b6114b8565b5b610a93576040517f08c379a0000000000000000000000000000000000000000000000000000000008152600401610a8a906133ae565b60405180910390fd5b610a9d8383611705565b505050565b600047905090565b600f5481565b6000601054905090565b60115481565b610ad1610acb6116fd565b826117be565b610b10576040517f08c379a0000000000000000000000000000000000000000000000000000000008152600401610b079061348e565b60405180910390fd5b610b1b838383611853565b505050565b6000610b2b83610fc2565b8210610b6c576040517f08c379a0000000000000000000000000000000000000000000000000000000008152600401610b639061328e565b60405180910390fd5b600660008473ffffffffffffffffffffffffffffffffffffffff1673ffffffffffffffffffffffffffffffffffffffff168152602001908152602001600020600083815260200190815260200160002054905092915050565b610be083838360405180602001604052806000815250611326565b505050565b60606000610bf283610fc2565b905060008167ffffffffffffffff811115610c36577f4e487b7100000000000000000000000000000000000000000000000000000000600052604160045260246000fd5b604051908082528060200260200182016040528015610c645781602001602082028036833780820191505090505b50905060005b82811015610cd457610c7c8582610b20565b828281518110610cb5577f4e487b7100000000000000000000000000000000000000000000000000000000600052603260045260246000fd5b6020026020010181815250508080610ccc906137fa565b915050610c6a565b508092505050919050565b610ce7611aba565b80600f8190555050565b6000610cfb611b38565b8210610d3c576040517f08c379a0000000000000000000000000000000000000000000000000000000008152600401610d339061346e565b60405180910390fd5b60088281548110610d76577f4e487b7100000000000000000000000000000000000000000000000000000000600052603260045260246000fd5b90600052602060002001549050919050565b610d90611aba565b8073ffffffffffffffffffffffffffffffffffffffff16600c60009054906101000a900473ffffffffffffffffffffffffffffffffffffffff1673ffffffffffffffffffffffffffffffffffffffff1614610dea57600080fd5b8073ffffffffffffffffffffffffffffffffffffffff166108fc479081150290604051600060405180830381858888f19350505050158015610e30573d6000803e3d6000fd5b5050565b610e3c611aba565b80600d9080519060200190610e5292919061291e565b5050565b600e60009054906101000a900460ff1681565b6000806002600084815260200190815260200160002060009054906101000a900473ffffffffffffffffffffffffffffffffffffffff169050600073ffffffffffffffffffffffffffffffffffffffff168173ffffffffffffffffffffffffffffffffffffffff161415610f12576040517f08c379a0000000000000000000000000000000000000000000000000000000008152600401610f099061342e565b60405180910390fd5b80915050919050565b600d8054610f2890613797565b80601f0160208091040260200160405190810160405280929190818152602001828054610f5490613797565b8015610fa15780601f10610f7657610100808354040283529160200191610fa1565b820191906000526020600020905b815481529060010190602001808311610f8457829003601f168201915b505050505081565b610fb1611aba565b806010819055508060128190555050565b60008073ffffffffffffffffffffffffffffffffffffffff168273ffffffffffffffffffffffffffffffffffffffff161415611033576040517f08c379a000000000000000000000000000000000000000000000000000000000815260040161102a9061338e565b60405180910390fd5b600360008373ffffffffffffffffffffffffffffffffffffffff1673ffffffffffffffffffffffffffffffffffffffff168152602001908152602001600020549050919050565b611082611aba565b61108c6000611b45565b565b611096611aba565b8060118190555050565b6110a8611aba565b600e60009054906101000a900460ff1615600e60006101000a81548160ff021916908315150217905550565b6000600a60009054906101000a900473ffffffffffffffffffffffffffffffffffffffff16905090565b60606001805461110d90613797565b80601f016020809104026020016040519081016040528092919081815260200182805461113990613797565b80156111865780601f1061115b57610100808354040283529160200191611186565b820191906000526020600020905b81548152906001019060200180831161116957829003601f168201915b5050505050905090565b60011515600e60009054906101000a900460ff16151514156111e7576040517f08c379a00000000000000000000000000000000000000000000000000000000081526004016111de9061326e565b60405180910390fd5b600081116111f457600080fd5b60115481111561120357600080fd5b3481600f546112129190613653565b1115611253576040517f08c379a000000000000000000000000000000000000000000000000000000000815260040161124a9061336e565b60405180910390fd5b60005b818110156112e6576000600161126c600b611c0b565b61127691906135cc565b90505b61128281611c19565b1561129a578180611292906137fa565b925050611279565b60105481116112d2576112ad3382611c85565b6112b7600b611ca3565b6001601260008282546112ca91906136ad565b925050819055505b5080806112de906137fa565b915050611256565b5050565b6112fc6112f56116fd565b8383611cb9565b5050565b600c60009054906101000a900473ffffffffffffffffffffffffffffffffffffffff1681565b6113376113316116fd565b836117be565b611376576040517f08c379a000000000000000000000000000000000000000000000000000000000815260040161136d9061348e565b60405180910390fd5b61138284848484611e26565b50505050565b606061139382611c19565b6113d2576040517f08c379a00000000000000000000000000000000000000000000000000000000081526004016113c99061340e565b60405180910390fd5b6000600d80546113e190613797565b80601f016020809104026020016040519081016040528092919081815260200182805461140d90613797565b801561145a5780601f1061142f5761010080835404028352916020019161145a565b820191906000526020600020905b81548152906001019060200180831161143d57829003601f168201915b50505050509050600081511161147f57604051806020016040528060008152506114aa565b8061148984611e82565b60405160200161149a92919061316e565b6040516020818303038152906040525b915050919050565b60105481565b6000600560008473ffffffffffffffffffffffffffffffffffffffff1673ffffffffffffffffffffffffffffffffffffffff16815260200190815260200160002060008373ffffffffffffffffffffffffffffffffffffffff1673ffffffffffffffffffffffffffffffffffffffff16815260200190815260200160002060009054906101000a900460ff16905092915050565b611554611aba565b600073ffffffffffffffffffffffffffffffffffffffff168173ffffffffffffffffffffffffffffffffffffffff1614156115c4576040517f08c379a00000000000000000000000000000000000000000000000000000000081526004016115bb906132ce565b60405180910390fd5b6115cd81611b45565b50565b60007f80ac58cd000000000000000000000000000000000000000000000000000000007bffffffffffffffffffffffffffffffffffffffffffffffffffffffff1916827bffffffffffffffffffffffffffffffffffffffffffffffffffffffff1916148061169b57507f5b5e139f000000000000000000000000000000000000000000000000000000007bffffffffffffffffffffffffffffffffffffffffffffffffffffffff1916827bffffffffffffffffffffffffffffffffffffffffffffffffffffffff1916145b806116ab57506116aa8261202f565b5b9050919050565b6116bb81611c19565b6116fa576040517f08c379a00000000000000000000000000000000000000000000000000000000081526004016116f19061342e565b60405180910390fd5b50565b600033905090565b816004600083815260200190815260200160002060006101000a81548173ffffffffffffffffffffffffffffffffffffffff021916908373ffffffffffffffffffffffffffffffffffffffff160217905550808273ffffffffffffffffffffffffffffffffffffffff1661177883610e69565b73ffffffffffffffffffffffffffffffffffffffff167f8c5be1e5ebec7d5bd14f71427d1e84f3dd0314c0f7b2291e5b200ac8c7c3b92560405160405180910390a45050565b6000806117ca83610e69565b90508073ffffffffffffffffffffffffffffffffffffffff168473ffffffffffffffffffffffffffffffffffffffff16148061180c575061180b81856114b8565b5b8061184a57508373ffffffffffffffffffffffffffffffffffffffff1661183284610944565b73ffffffffffffffffffffffffffffffffffffffff16145b91505092915050565b8273ffffffffffffffffffffffffffffffffffffffff1661187382610e69565b73ffffffffffffffffffffffffffffffffffffffff16146118c9576040517f08c379a00000000000000000000000000000000000000000000000000000000081526004016118c0906132ee565b60405180910390fd5b600073ffffffffffffffffffffffffffffffffffffffff168273ffffffffffffffffffffffffffffffffffffffff161415611939576040517f08c379a00000000000000000000000000000000000000000000000000000000081526004016119309061332e565b60405180910390fd5b611944838383612099565b61194f600082611705565b6001600360008573ffffffffffffffffffffffffffffffffffffffff1673ffffffffffffffffffffffffffffffffffffffff168152602001908152602001600020600082825461199f91906136ad565b925050819055506001600360008473ffffffffffffffffffffffffffffffffffffffff1673ffffffffffffffffffffffffffffffffffffffff16815260200190815260200160002060008282546119f691906135cc565b92505081905550816002600083815260200190815260200160002060006101000a81548173ffffffffffffffffffffffffffffffffffffffff021916908373ffffffffffffffffffffffffffffffffffffffff160217905550808273ffffffffffffffffffffffffffffffffffffffff168473ffffffffffffffffffffffffffffffffffffffff167fddf252ad1be2c89b69c2b068fc378daa952ba7f163c4a11628f55a4df523b3ef60405160405180910390a4611ab58383836121ad565b505050565b611ac26116fd565b73ffffffffffffffffffffffffffffffffffffffff16611ae06110d4565b73ffffffffffffffffffffffffffffffffffffffff1614611b36576040517f08c379a0000000000000000000000000000000000000000000000000000000008152600401611b2d906133ee565b60405180910390fd5b565b6000600880549050905090565b6000600a60009054906101000a900473ffffffffffffffffffffffffffffffffffffffff16905081600a60006101000a81548173ffffffffffffffffffffffffffffffffffffffff021916908373ffffffffffffffffffffffffffffffffffffffff1602179055508173ffffffffffffffffffffffffffffffffffffffff168173ffffffffffffffffffffffffffffffffffffffff167f8be0079c531659141344cd1fd0a4f28419497f9722a3daafe3b4186f6b6457e060405160405180910390a35050565b600081600001549050919050565b60008073ffffffffffffffffffffffffffffffffffffffff166002600084815260200190815260200160002060009054906101000a900473ffffffffffffffffffffffffffffffffffffffff1673ffffffffffffffffffffffffffffffffffffffff1614159050919050565b611c9f8282604051806020016040528060008152506121b2565b5050565b6001816000016000828254019250508190555050565b8173ffffffffffffffffffffffffffffffffffffffff168373ffffffffffffffffffffffffffffffffffffffff161415611d28576040517f08c379a0000000000000000000000000000000000000000000000000000000008152600401611d1f9061334e565b60405180910390fd5b80600560008573ffffffffffffffffffffffffffffffffffffffff1673ffffffffffffffffffffffffffffffffffffffff16815260200190815260200160002060008473ffffffffffffffffffffffffffffffffffffffff1673ffffffffffffffffffffffffffffffffffffffff16815260200190815260200160002060006101000a81548160ff0219169083151502179055508173ffffffffffffffffffffffffffffffffffffffff168373ffffffffffffffffffffffffffffffffffffffff167f17307eab39ab6107e8899845ad3d59bd9653f200f220920489ca2b5937696c3183604051611e199190613231565b60405180910390a3505050565b611e31848484611853565b611e3d8484848461220d565b611e7c576040517f08c379a0000000000000000000000000000000000000000000000000000000008152600401611e73906132ae565b60405180910390fd5b50505050565b60606000821415611eca576040518060400160405280600181526020017f3000000000000000000000000000000000000000000000000000000000000000815250905061202a565b600082905060005b60008214611efc578080611ee5906137fa565b915050600a82611ef59190613622565b9150611ed2565b60008167ffffffffffffffff811115611f3e577f4e487b7100000000000000000000000000000000000000000000000000000000600052604160045260246000fd5b6040519080825280601f01601f191660200182016040528015611f705781602001600182028036833780820191505090505b5090505b6000851461202357600182611f8991906136ad565b9150600a85611f989190613843565b6030611fa491906135cc565b60f81b818381518110611fe0577f4e487b7100000000000000000000000000000000000000000000000000000000600052603260045260246000fd5b60200101907effffffffffffffffffffffffffffffffffffffffffffffffffffffffffffff1916908160001a905350600a8561201c9190613622565b9450611f74565b8093505050505b919050565b60007f01ffc9a7000000000000000000000000000000000000000000000000000000007bffffffffffffffffffffffffffffffffffffffffffffffffffffffff1916827bffffffffffffffffffffffffffffffffffffffffffffffffffffffff1916149050919050565b6120a48383836123a4565b600073ffffffffffffffffffffffffffffffffffffffff168373ffffffffffffffffffffffffffffffffffffffff1614156120e7576120e2816123a9565b612126565b8173ffffffffffffffffffffffffffffffffffffffff168373ffffffffffffffffffffffffffffffffffffffff16146121255761212483826123f2565b5b5b600073ffffffffffffffffffffffffffffffffffffffff168273ffffffffffffffffffffffffffffffffffffffff161415612169576121648161255f565b6121a8565b8273ffffffffffffffffffffffffffffffffffffffff168273ffffffffffffffffffffffffffffffffffffffff16146121a7576121a682826126a2565b5b5b505050565b505050565b6121bc8383612721565b6121c9600084848461220d565b612208576040517f08c379a00000000000000000000000000000000000000000000000000000000081526004016121ff906132ae565b60405180910390fd5b505050565b600061222e8473ffffffffffffffffffffffffffffffffffffffff166128fb565b15612397578373ffffffffffffffffffffffffffffffffffffffff1663150b7a026122576116fd565b8786866040518563ffffffff1660e01b815260040161227994939291906131c3565b602060405180830381600087803b15801561229357600080fd5b505af19250505080156122c457506040513d601f19601f820116820180604052508101906122c19190612cca565b60015b612347573d80600081146122f4576040519150601f19603f3d011682016040523d82523d6000602084013e6122f9565b606091505b5060008151141561233f576040517f08c379a0000000000000000000000000000000000000000000000000000000008152600401612336906132ae565b60405180910390fd5b805181602001fd5b63150b7a0260e01b7bffffffffffffffffffffffffffffffffffffffffffffffffffffffff1916817bffffffffffffffffffffffffffffffffffffffffffffffffffffffff19161491505061239c565b600190505b949350505050565b505050565b6008805490506009600083815260200190815260200160002081905550600881908060018154018082558091505060019003906000526020600020016000909190919091505550565b600060016123ff84610fc2565b61240991906136ad565b90506000600760008481526020019081526020016000205490508181146124ee576000600660008673ffffffffffffffffffffffffffffffffffffffff1673ffffffffffffffffffffffffffffffffffffffff168152602001908152602001600020600084815260200190815260200160002054905080600660008773ffffffffffffffffffffffffffffffffffffffff1673ffffffffffffffffffffffffffffffffffffffff168152602001908152602001600020600084815260200190815260200160002081905550816007600083815260200190815260200160002081905550505b6007600084815260200190815260200160002060009055600660008573ffffffffffffffffffffffffffffffffffffffff1673ffffffffffffffffffffffffffffffffffffffff16815260200190815260200160002060008381526020019081526020016000206000905550505050565b6000600160088054905061257391906136ad565b90506000600960008481526020019081526020016000205490506000600883815481106125c9577f4e487b7100000000000000000000000000000000000000000000000000000000600052603260045260246000fd5b906000526020600020015490508060088381548110612611577f4e487b7100000000000000000000000000000000000000000000000000000000600052603260045260246000fd5b906000526020600020018190555081600960008381526020019081526020016000208190555060096000858152602001908152602001600020600090556008805480612686577f4e487b7100000000000000000000000000000000000000000000000000000000600052603160045260246000fd5b6001900381819060005260206000200160009055905550505050565b60006126ad83610fc2565b905081600660008573ffffffffffffffffffffffffffffffffffffffff1673ffffffffffffffffffffffffffffffffffffffff168152602001908152602001600020600083815260200190815260200160002081905550806007600084815260200190815260200160002081905550505050565b600073ffffffffffffffffffffffffffffffffffffffff168273ffffffffffffffffffffffffffffffffffffffff161415612791576040517f08c379a0000000000000000000000000000000000000000000000000000000008152600401612788906133ce565b60405180910390fd5b61279a81611c19565b156127da576040517f08c379a00000000000000000000000000000000000000000000000000000000081526004016127d19061330e565b60405180910390fd5b6127e660008383612099565b6001600360008473ffffffffffffffffffffffffffffffffffffffff1673ffffffffffffffffffffffffffffffffffffffff168152602001908152602001600020600082825461283691906135cc565b92505081905550816002600083815260200190815260200160002060006101000a81548173ffffffffffffffffffffffffffffffffffffffff021916908373ffffffffffffffffffffffffffffffffffffffff160217905550808273ffffffffffffffffffffffffffffffffffffffff16600073ffffffffffffffffffffffffffffffffffffffff167fddf252ad1be2c89b69c2b068fc378daa952ba7f163c4a11628f55a4df523b3ef60405160405180910390a46128f7600083836121ad565b5050565b6000808273ffffffffffffffffffffffffffffffffffffffff163b119050919050565b82805461292a90613797565b90600052602060002090601f01602090048101928261294c5760008555612993565b82601f1061296557805160ff1916838001178555612993565b82800160010185558215612993579182015b82811115612992578251825591602001919060010190612977565b5b5090506129a091906129a4565b5090565b5b808211156129bd5760008160009055506001016129a5565b5090565b60006129d46129cf846134ee565b6134c9565b9050828152602081018484840111156129ec57600080fd5b6129f7848285613755565b509392505050565b6000612a12612a0d8461351f565b6134c9565b905082815260208101848484011115612a2a57600080fd5b612a35848285613755565b509392505050565b600081359050612a4c81613e17565b92915050565b600081359050612a6181613e2e565b92915050565b600081359050612a7681613e45565b92915050565b600081519050612a8b81613e45565b92915050565b600082601f830112612aa257600080fd5b8135612ab28482602086016129c1565b91505092915050565b600082601f830112612acc57600080fd5b8135612adc8482602086016129ff565b91505092915050565b600081359050612af481613e5c565b92915050565b600060208284031215612b0c57600080fd5b6000612b1a84828501612a3d565b91505092915050565b60008060408385031215612b3657600080fd5b6000612b4485828601612a3d565b9250506020612b5585828601612a3d565b9150509250929050565b600080600060608486031215612b7457600080fd5b6000612b8286828701612a3d565b9350506020612b9386828701612a3d565b9250506040612ba486828701612ae5565b9150509250925092565b60008060008060808587031215612bc457600080fd5b6000612bd287828801612a3d565b9450506020612be387828801612a3d565b9350506040612bf487828801612ae5565b925050606085013567ffffffffffffffff811115612c1157600080fd5b612c1d87828801612a91565b91505092959194509250565b60008060408385031215612c3c57600080fd5b6000612c4a85828601612a3d565b9250506020612c5b85828601612a52565b9150509250929050565b60008060408385031215612c7857600080fd5b6000612c8685828601612a3d565b9250506020612c9785828601612ae5565b9150509250929050565b600060208284031215612cb357600080fd5b6000612cc184828501612a67565b91505092915050565b600060208284031215612cdc57600080fd5b6000612cea84828501612a7c565b91505092915050565b600060208284031215612d0557600080fd5b600082013567ffffffffffffffff811115612d1f57600080fd5b612d2b84828501612abb565b91505092915050565b600060208284031215612d4657600080fd5b6000612d5484828501612ae5565b91505092915050565b6000612d698383613150565b60208301905092915050565b612d7e816136e1565b82525050565b6000612d8f82613560565b612d99818561358e565b9350612da483613550565b8060005b83811015612dd5578151612dbc8882612d5d565b9750612dc783613581565b925050600181019050612da8565b5085935050505092915050565b612deb816136f3565b82525050565b6000612dfc8261356b565b612e06818561359f565b9350612e16818560208601613764565b612e1f81613930565b840191505092915050565b6000612e3582613576565b612e3f81856135b0565b9350612e4f818560208601613764565b612e5881613930565b840191505092915050565b6000612e6e82613576565b612e7881856135c1565b9350612e88818560208601613764565b80840191505092915050565b6000612ea16013836135b0565b9150612eac82613941565b602082019050919050565b6000612ec4602b836135b0565b9150612ecf8261396a565b604082019050919050565b6000612ee76032836135b0565b9150612ef2826139b9565b604082019050919050565b6000612f0a6026836135b0565b9150612f1582613a08565b604082019050919050565b6000612f2d6025836135b0565b9150612f3882613a57565b604082019050919050565b6000612f50601c836135b0565b9150612f5b82613aa6565b602082019050919050565b6000612f736024836135b0565b9150612f7e82613acf565b604082019050919050565b6000612f966019836135b0565b9150612fa182613b1e565b602082019050919050565b6000612fb9601f836135b0565b9150612fc482613b47565b602082019050919050565b6000612fdc6029836135b0565b9150612fe782613b70565b604082019050919050565b6000612fff603e836135b0565b915061300a82613bbf565b604082019050919050565b60006130226020836135b0565b915061302d82613c0e565b602082019050919050565b60006130456005836135c1565b915061305082613c37565b600582019050919050565b60006130686020836135b0565b915061307382613c60565b602082019050919050565b600061308b602f836135b0565b915061309682613c89565b604082019050919050565b60006130ae6018836135b0565b91506130b982613cd8565b602082019050919050565b60006130d16021836135b0565b91506130dc82613d01565b604082019050919050565b60006130f4602c836135b0565b91506130ff82613d50565b604082019050919050565b6000613117602e836135b0565b915061312282613d9f565b604082019050919050565b600061313a6001836135c1565b915061314582613dee565b600182019050919050565b6131598161374b565b82525050565b6131688161374b565b82525050565b600061317a8285612e63565b91506131858261312d565b91506131918284612e63565b915061319c82613038565b91508190509392505050565b60006020820190506131bd6000830184612d75565b92915050565b60006080820190506131d86000830187612d75565b6131e56020830186612d75565b6131f2604083018561315f565b81810360608301526132048184612df1565b905095945050505050565b600060208201905081810360008301526132298184612d84565b905092915050565b60006020820190506132466000830184612de2565b92915050565b600060208201905081810360008301526132668184612e2a565b905092915050565b6000602082019050818103600083015261328781612e94565b9050919050565b600060208201905081810360008301526132a781612eb7565b9050919050565b600060208201905081810360008301526132c781612eda565b9050919050565b600060208201905081810360008301526132e781612efd565b9050919050565b6000602082019050818103600083015261330781612f20565b9050919050565b6000602082019050818103600083015261332781612f43565b9050919050565b6000602082019050818103600083015261334781612f66565b9050919050565b6000602082019050818103600083015261336781612f89565b9050919050565b6000602082019050818103600083015261338781612fac565b9050919050565b600060208201905081810360008301526133a781612fcf565b9050919050565b600060208201905081810360008301526133c781612ff2565b9050919050565b600060208201905081810360008301526133e781613015565b9050919050565b600060208201905081810360008301526134078161305b565b9050919050565b600060208201905081810360008301526134278161307e565b9050919050565b60006020820190508181036000830152613447816130a1565b9050919050565b60006020820190508181036000830152613467816130c4565b9050919050565b60006020820190508181036000830152613487816130e7565b9050919050565b600060208201905081810360008301526134a78161310a565b9050919050565b60006020820190506134c3600083018461315f565b92915050565b60006134d36134e4565b90506134df82826137c9565b919050565b6000604051905090565b600067ffffffffffffffff82111561350957613508613901565b5b61351282613930565b9050602081019050919050565b600067ffffffffffffffff82111561353a57613539613901565b5b61354382613930565b9050602081019050919050565b6000819050602082019050919050565b600081519050919050565b600081519050919050565b600081519050919050565b6000602082019050919050565b600082825260208201905092915050565b600082825260208201905092915050565b600082825260208201905092915050565b600081905092915050565b60006135d78261374b565b91506135e28361374b565b9250827fffffffffffffffffffffffffffffffffffffffffffffffffffffffffffffffff0382111561361757613616613874565b5b828201905092915050565b600061362d8261374b565b91506136388361374b565b925082613648576136476138a3565b5b828204905092915050565b600061365e8261374b565b91506136698361374b565b9250817fffffffffffffffffffffffffffffffffffffffffffffffffffffffffffffffff04831182151516156136a2576136a1613874565b5b828202905092915050565b60006136b88261374b565b91506136c38361374b565b9250828210156136d6576136d5613874565b5b828203905092915050565b60006136ec8261372b565b9050919050565b60008115159050919050565b60007fffffffff0000000000000000000000000000000000000000000000000000000082169050919050565b600073ffffffffffffffffffffffffffffffffffffffff82169050919050565b6000819050919050565b82818337600083830152505050565b60005b83811015613782578082015181840152602081019050613767565b83811115613791576000848401525b50505050565b600060028204905060018216806137af57607f821691505b602082108114156137c3576137c26138d2565b5b50919050565b6137d282613930565b810181811067ffffffffffffffff821117156137f1576137f0613901565b5b80604052505050565b60006138058261374b565b91507fffffffffffffffffffffffffffffffffffffffffffffffffffffffffffffffff82141561383857613837613874565b5b600182019050919050565b600061384e8261374b565b91506138598361374b565b925082613869576138686138a3565b5b828206905092915050565b7f4e487b7100000000000000000000000000000000000000000000000000000000600052601160045260246000fd5b7f4e487b7100000000000000000000000000000000000000000000000000000000600052601260045260246000fd5b7f4e487b7100000000000000000000000000000000000000000000000000000000600052602260045260246000fd5b7f4e487b7100000000000000000000000000000000000000000000000000000000600052604160045260246000fd5b6000601f19601f8301169050919050565b7f53616c65206d7573742062652061637469766500000000000000000000000000600082015250565b7f455243373231456e756d657261626c653a206f776e657220696e646578206f7560008201527f74206f6620626f756e6473000000000000000000000000000000000000000000602082015250565b7f4552433732313a207472616e7366657220746f206e6f6e20455243373231526560008201527f63656976657220696d706c656d656e7465720000000000000000000000000000602082015250565b7f4f776e61626c653a206e6577206f776e657220697320746865207a65726f206160008201527f6464726573730000000000000000000000000000000000000000000000000000602082015250565b7f4552433732313a207472616e736665722066726f6d20696e636f72726563742060008201527f6f776e6572000000000000000000000000000000000000000000000000000000602082015250565b7f4552433732313a20746f6b656e20616c7265616479206d696e74656400000000600082015250565b7f4552433732313a207472616e7366657220746f20746865207a65726f2061646460008201527f7265737300000000000000000000000000000000000000000000000000000000602082015250565b7f4552433732313a20617070726f766520746f2063616c6c657200000000000000600082015250565b7f45746865722076616c75652073656e74206973206e6f7420636f727265637400600082015250565b7f4552433732313a2061646472657373207a65726f206973206e6f74206120766160008201527f6c6964206f776e65720000000000000000000000000000000000000000000000602082015250565b7f4552433732313a20617070726f76652063616c6c6572206973206e6f7420746f60008201527f6b656e206f776e6572206e6f7220617070726f76656420666f7220616c6c0000602082015250565b7f4552433732313a206d696e7420746f20746865207a65726f2061646472657373600082015250565b7f2e6a736f6e000000000000000000000000000000000000000000000000000000600082015250565b7f4f776e61626c653a2063616c6c6572206973206e6f7420746865206f776e6572600082015250565b7f4552433732314d657461646174613a2055524920717565727920666f72206e6f60008201527f6e6578697374656e7420746f6b656e0000000000000000000000000000000000602082015250565b7f4552433732313a20696e76616c696420746f6b656e2049440000000000000000600082015250565b7f4552433732313a20617070726f76616c20746f2063757272656e74206f776e6560008201527f7200000000000000000000000000000000000000000000000000000000000000602082015250565b7f455243373231456e756d657261626c653a20676c6f62616c20696e646578206f60008201527f7574206f6620626f756e64730000000000000000000000000000000000000000602082015250565b7f4552433732313a2063616c6c6572206973206e6f7420746f6b656e206f776e6560008201527f72206e6f7220617070726f766564000000000000000000000000000000000000602082015250565b7f2f00000000000000000000000000000000000000000000000000000000000000600082015250565b613e20816136e1565b8114613e2b57600080fd5b50565b613e37816136f3565b8114613e4257600080fd5b50565b613e4e816136ff565b8114613e5957600080fd5b50565b613e658161374b565b8114613e7057600080fd5b5056fea2646970667358221220925ba05945d9f8b1eb77db08fb5451f66a914b3b8d8640cbefd2f2d37eebe79664736f6c63430008040033697066733a2f2f516d546e44475133504354546d634d5179384c4b38513156487a4e4d4553634b754b65465053574c4a70676f734c",
  "linkReferences": {},
  "deployedLinkReferences": {}
}